{
    "contractName": "Accounts",
    "abi": [
        {
            "inputs": [
                {
                    "internalType": "string",
                    "name": "_login",
                    "type": "string"
                },
                {
                    "internalType": "string",
                    "name": "_name",
                    "type": "string"
                },
                {
                    "internalType": "string",
                    "name": "_password",
                    "type": "string"
                }
            ],
            "name": "add_customer",
            "outputs": [],
            "stateMutability": "nonpayable",
            "type": "function"
        },
        {
            "inputs": [
                {
                    "internalType": "address payable",
                    "name": "_shop_address",
                    "type": "address"
                },
                {
                    "internalType": "string",
                    "name": "_name",
                    "type": "string"
                },
                {
                    "internalType": "string",
                    "name": "_city",
                    "type": "string"
                },
                {
                    "internalType": "string",
                    "name": "_password",
                    "type": "string"
                }
            ],
            "name": "add_shop",
            "outputs": [],
            "stateMutability": "nonpayable",
            "type": "function"
        },
        {
            "inputs": [
                {
                    "internalType": "string",
                    "name": "",
                    "type": "string"
                }
            ],
            "name": "address_per_login",
            "outputs": [
                {
                    "internalType": "address",
                    "name": "",
                    "type": "address"
                }
            ],
            "stateMutability": "view",
            "type": "function"
        },
        {
            "inputs": [
                {
                    "internalType": "address",
                    "name": "",
                    "type": "address"
                }
            ],
            "name": "admins",
            "outputs": [
                {
                    "internalType": "string",
                    "name": "login",
                    "type": "string"
                },
                {
                    "internalType": "string",
                    "name": "name",
                    "type": "string"
                }
            ],
            "stateMutability": "view",
            "type": "function"
        },
        {
            "inputs": [
                {
                    "internalType": "address",
                    "name": "",
                    "type": "address"
                }
            ],
            "name": "asks_bank",
            "outputs": [
                {
                    "internalType": "uint256",
                    "name": "",
                    "type": "uint256"
                }
            ],
            "stateMutability": "view",
            "type": "function"
        },
        {
            "inputs": [
                {
                    "internalType": "address",
                    "name": "",
                    "type": "address"
                }
            ],
            "name": "asks_for_down",
            "outputs": [
                {
                    "internalType": "address",
                    "name": "",
                    "type": "address"
                }
            ],
            "stateMutability": "view",
            "type": "function"
        },
        {
            "inputs": [
                {
                    "internalType": "address",
                    "name": "",
                    "type": "address"
                }
            ],
            "name": "asks_for_up",
            "outputs": [
                {
                    "internalType": "address",
                    "name": "",
                    "type": "address"
                }
            ],
            "stateMutability": "view",
            "type": "function"
        },
        {
            "inputs": [
                {
                    "internalType": "string",
                    "name": "_login",
                    "type": "string"
                },
                {
                    "internalType": "string",
                    "name": "_password",
                    "type": "string"
                }
            ],
            "name": "check_auth_data",
            "outputs": [
                {
                    "internalType": "bool",
                    "name": "",
                    "type": "bool"
                }
            ],
            "stateMutability": "view",
            "type": "function"
        },
        {
            "inputs": [
                {
                    "internalType": "string",
                    "name": "_bank_name",
                    "type": "string"
                },
                {
                    "internalType": "address",
                    "name": "_bank_address",
                    "type": "address"
                },
                {
                    "internalType": "string",
                    "name": "_password",
                    "type": "string"
                }
            ],
            "name": "create_bank_account",
            "outputs": [],
            "stateMutability": "nonpayable",
            "type": "function"
        },
        {
            "inputs": [
                {
                    "internalType": "address",
                    "name": "",
                    "type": "address"
                }
            ],
            "name": "customers",
            "outputs": [
                {
                    "internalType": "string",
                    "name": "login",
                    "type": "string"
                },
                {
                    "internalType": "string",
                    "name": "name",
                    "type": "string"
                }
            ],
            "stateMutability": "view",
            "type": "function"
        },
        {
            "inputs": [
                {
                    "internalType": "string",
                    "name": "_login",
                    "type": "string"
                }
            ],
            "name": "get_address_by_login",
            "outputs": [
                {
                    "internalType": "address",
                    "name": "",
                    "type": "address"
                }
            ],
            "stateMutability": "view",
            "type": "function"
        },
        {
            "inputs": [],
            "name": "get_bank",
            "outputs": [
                {
                    "components": [
                        {
                            "internalType": "string",
                            "name": "name",
                            "type": "string"
                        },
                        {
                            "internalType": "address",
                            "name": "bank_address",
                            "type": "address"
                        }
                    ],
                    "internalType": "struct Accounts.Bank",
                    "name": "",
                    "type": "tuple"
                }
            ],
            "stateMutability": "view",
            "type": "function"
        },
        {
            "inputs": [
                {
                    "internalType": "address",
                    "name": "_user_address",
                    "type": "address"
                }
            ],
            "name": "get_role",
            "outputs": [
                {
                    "internalType": "string",
                    "name": "",
                    "type": "string"
                }
            ],
            "stateMutability": "view",
            "type": "function"
        },
        {
            "inputs": [
                {
                    "internalType": "address",
                    "name": "_user_address",
                    "type": "address"
                }
            ],
            "name": "get_token",
            "outputs": [
                {
                    "internalType": "string",
                    "name": "",
                    "type": "string"
                }
            ],
            "stateMutability": "view",
            "type": "function"
        },
        {
            "inputs": [
                {
                    "internalType": "address",
                    "name": "_user_address",
                    "type": "address"
                }
            ],
            "name": "logout",
            "outputs": [],
            "stateMutability": "nonpayable",
            "type": "function"
        },
        {
            "inputs": [
                {
                    "internalType": "address",
                    "name": "",
                    "type": "address"
                }
            ],
            "name": "providers",
            "outputs": [
                {
                    "internalType": "string",
                    "name": "name",
                    "type": "string"
                }
            ],
            "stateMutability": "view",
            "type": "function"
        },
        {
            "inputs": [
                {
                    "internalType": "address",
                    "name": "",
                    "type": "address"
                }
            ],
            "name": "role_per_address",
            "outputs": [
                {
                    "internalType": "enum Accounts.Role",
                    "name": "",
                    "type": "uint8"
                }
            ],
            "stateMutability": "view",
            "type": "function"
        },
        {
            "inputs": [
                {
                    "internalType": "address",
                    "name": "",
                    "type": "address"
                }
            ],
            "name": "sellers",
            "outputs": [
                {
                    "internalType": "string",
                    "name": "login",
                    "type": "string"
                },
                {
                    "internalType": "string",
                    "name": "name",
                    "type": "string"
                },
                {
                    "internalType": "string",
                    "name": "city",
                    "type": "string"
                },
                {
                    "internalType": "address",
                    "name": "shop_address",
                    "type": "address"
                }
            ],
            "stateMutability": "view",
            "type": "function"
        },
        {
            "inputs": [
                {
                    "internalType": "address",
                    "name": "_user_address",
                    "type": "address"
                },
                {
                    "internalType": "string",
                    "name": "_token",
                    "type": "string"
                }
            ],
            "name": "set_token",
            "outputs": [],
            "stateMutability": "nonpayable",
            "type": "function"
        },
        {
            "inputs": [
                {
                    "internalType": "address",
                    "name": "",
                    "type": "address"
                }
            ],
            "name": "shops",
            "outputs": [
                {
                    "internalType": "string",
                    "name": "name",
                    "type": "string"
                },
                {
                    "internalType": "string",
                    "name": "city",
                    "type": "string"
                },
                {
                    "internalType": "uint16",
                    "name": "rate",
                    "type": "uint16"
                },
                {
                    "internalType": "uint256",
                    "name": "using_reviews",
                    "type": "uint256"
                }
            ],
            "stateMutability": "view",
            "type": "function"
        },
        {
            "inputs": [
                {
                    "internalType": "uint256",
                    "name": "",
                    "type": "uint256"
                }
            ],
            "name": "users",
            "outputs": [
                {
                    "internalType": "address",
                    "name": "",
                    "type": "address"
                }
            ],
            "stateMutability": "view",
            "type": "function"
        }
    ],
    "bytecode": "608060405234801561001057600080fd5b506116f3806100206000396000f3fe608060405234801561001057600080fd5b50600436106101375760003560e01c80635433ee09116100b8578063977d91221161007c578063977d912214610317578063a228f4e11461032a578063b3b2baae1461033d578063cc51f9b914610371578063e324093b14610384578063f4170678146103ad57600080fd5b80635433ee09146102635780636ac527821461028c5780636d47ab72146102a1578063831454db146102c457806396888ea0146102f457600080fd5b8063336989ae116100ff578063336989ae146101c3578063365b98b2146101e457806339c22db81461020f578063429b62e51461022257806344a373d71461023557600080fd5b8063052bbde91461013c5780630787bc2714610151578063253583c41461017a5780632dca1fcc1461018d5780632e2f14ab146101b0575b600080fd5b61014f61014a366004611216565b6103c0565b005b61016461015f36600461128e565b610479565b604051610171919061130e565b60405180910390f35b61014f610188366004611321565b610517565b6101a061019b36600461128e565b6106b2565b60405161017194939291906113bc565b61014f6101be3660046113f9565b6107ef565b6101d66101d136600461128e565b61091e565b60405161017192919061146a565b6101f76101f2366004611498565b610a4a565b6040516001600160a01b039091168152602001610171565b61016461021d36600461128e565b610a74565b6101d661023036600461128e565b610c2a565b61025561024336600461128e565b60066020526000908152604090205481565b604051908152602001610171565b6101f761027136600461128e565b6005602052600090815260409020546001600160a01b031681565b610294610c45565b60405161017191906114b1565b6102b46102af36600461128e565b610d13565b60405161017194939291906114ee565b6102e76102d236600461128e565b60016020526000908152604090205460ff1681565b6040516101719190611557565b61030761030236600461157f565b610edc565b6040519015158152602001610171565b61016461032536600461128e565b610f2d565b61014f6103383660046115e3565b610fd9565b6101f761034b366004611629565b80516020818301810180516003825292820191909301209152546001600160a01b031681565b61014f61037f36600461128e565b611007565b6101f761039236600461128e565b6004602052600090815260409020546001600160a01b031681565b6101f76103bb366004611629565b61103c565b604080518082019091528381526001600160a01b03831660208083019190915284516007916103f391839188019061106d565b50602091820151600191820180546001600160a01b0319166001600160a01b0392831617905584166000908152908252604090819020805460ff191690555161043e9183910161130e565b604051602081830303815290604052805190602001206002846040516104649190611666565b90815260405190819003602001902055505050565b600b6020526000908152604090208054819061049490611682565b80601f01602080910402602001604051908101604052809291908181526020018280546104c090611682565b801561050d5780601f106104e25761010080835404028352916020019161050d565b820191906000526020600020905b8154815290600101906020018083116104f057829003601f168201915b5050505050905081565b61054d6040518060a00160405280606081526020016060815260200160608152602001600061ffff168152602001600081525090565b8381526020808201849052600060608301819052608083018190526001600160a01b0387168152600a82526040902082518051849361059092849291019061106d565b5060208281015180516105a9926001850192019061106d565b50604082015180516105c59160028401916020909101906110f1565b50606082015160038201805461ffff191661ffff9092169190911790556080909101516004909101556001600160a01b0385166000908152600160208190526040909120805460ff19168280021790555081604051602001610627919061130e565b6040516020818303038152906040528051906020012060028560405161064d9190611666565b908152604051908190036020019020555050600080546001810182559080527f290decd9548b62a8d60345a988386fc84ba6bc95484008f6362f93160ef3e5630180546001600160a01b039094166001600160a01b0319909416939093179092555050565b600a602052600090815260409020805481906106cd90611682565b80601f01602080910402602001604051908101604052809291908181526020018280546106f990611682565b80156107465780601f1061071b57610100808354040283529160200191610746565b820191906000526020600020905b81548152906001019060200180831161072957829003601f168201915b50505050509080600101805461075b90611682565b80601f016020809104026020016040519081016040528092919081815260200182805461078790611682565b80156107d45780601f106107a9576101008083540402835291602001916107d4565b820191906000526020600020905b8154815290600101906020018083116107b757829003601f168201915b505050506003830154600490930154919261ffff1691905084565b6040805180820182528481526020808201859052336000908152600d8252929092208151805192939192610826928492019061106d565b50602082810151805161083f926001850192019061106d565b50506040516108539150829060200161130e565b604051602081830303815290604052805190602001206002846040516108799190611666565b9081526040805191829003602090810183209390935533600081815260019094529220805460ff191660041790556003906108b5908690611666565b90815260405190819003602001902080546001600160a01b03929092166001600160a01b0319928316179055600080546001810182559080527f290decd9548b62a8d60345a988386fc84ba6bc95484008f6362f93160ef3e56301805490911633179055505050565b600d6020526000908152604090208054819061093990611682565b80601f016020809104026020016040519081016040528092919081815260200182805461096590611682565b80156109b25780601f10610987576101008083540402835291602001916109b2565b820191906000526020600020905b81548152906001019060200180831161099557829003601f168201915b5050505050908060010180546109c790611682565b80601f01602080910402602001604051908101604052809291908181526020018280546109f390611682565b8015610a405780601f10610a1557610100808354040283529160200191610a40565b820191906000526020600020905b815481529060010190602001808311610a2357829003601f168201915b5050505050905082565b60008181548110610a5a57600080fd5b6000918252602090912001546001600160a01b0316905081565b6001600160a01b03811660009081526001602052604081205460609160ff90911690816006811115610aa857610aa8611541565b1415610ad057505060408051808201909152600481526362616e6b60e01b6020820152919050565b6001816006811115610ae457610ae4611541565b1415610b0c575050604080518082019091526004815263073686f760e41b6020820152919050565b6002816006811115610b2057610b20611541565b1415610b4c575050604080518082019091526008815267383937bb34b232b960c11b6020820152919050565b6003816006811115610b6057610b60611541565b1415610b8a57505060408051808201909152600681526539b2b63632b960d11b6020820152919050565b6004816006811115610b9e57610b9e611541565b1415610bca57505060408051808201909152600881526731bab9ba37b6b2b960c11b6020820152919050565b6005816006811115610bde57610bde611541565b1415610c0757505060408051808201909152600581526430b236b4b760d91b6020820152919050565b505060408051808201909152600581526419dd595cdd60da1b6020820152919050565b600e6020526000908152604090208054819061093990611682565b6040805180820190915260608152600060208201526007604051806040016040529081600082018054610c7790611682565b80601f0160208091040260200160405190810160405280929190818152602001828054610ca390611682565b8015610cf05780601f10610cc557610100808354040283529160200191610cf0565b820191906000526020600020905b815481529060010190602001808311610cd357829003601f168201915b5050509183525050600191909101546001600160a01b0316602090910152919050565b600c60205260009081526040902080548190610d2e90611682565b80601f0160208091040260200160405190810160405280929190818152602001828054610d5a90611682565b8015610da75780601f10610d7c57610100808354040283529160200191610da7565b820191906000526020600020905b815481529060010190602001808311610d8a57829003601f168201915b505050505090806001018054610dbc90611682565b80601f0160208091040260200160405190810160405280929190818152602001828054610de890611682565b8015610e355780601f10610e0a57610100808354040283529160200191610e35565b820191906000526020600020905b815481529060010190602001808311610e1857829003601f168201915b505050505090806002018054610e4a90611682565b80601f0160208091040260200160405190810160405280929190818152602001828054610e7690611682565b8015610ec35780601f10610e9857610100808354040283529160200191610ec3565b820191906000526020600020905b815481529060010190602001808311610ea657829003601f168201915b505050600390930154919250506001600160a01b031684565b600081604051602001610eef919061130e565b60405160208183030381529060405280519060200120600284604051610f159190611666565b90815260200160405180910390205414905092915050565b6001600160a01b0381166000908152600f60205260409020805460609190610f5490611682565b80601f0160208091040260200160405190810160405280929190818152602001828054610f8090611682565b8015610fcd5780601f10610fa257610100808354040283529160200191610fcd565b820191906000526020600020905b815481529060010190602001808311610fb057829003601f168201915b50505050509050919050565b6001600160a01b0382166000908152600f6020908152604090912082516110029284019061106d565b505050565b60408051602080820180845260008084526001600160a01b0386168152600f9092529290209051611038929061106d565b5050565b600060038260405161104e9190611666565b908152604051908190036020019020546001600160a01b031692915050565b82805461107990611682565b90600052602060002090601f01602090048101928261109b57600085556110e1565b82601f106110b457805160ff19168380011785556110e1565b828001600101855582156110e1579182015b828111156110e15782518255916020019190600101906110c6565b506110ed929150611146565b5090565b8280548282559060005260206000209081019282156110e1579160200282015b828111156110e157825182546001600160a01b0319166001600160a01b03909116178255602090920191600190910190611111565b5b808211156110ed5760008155600101611147565b634e487b7160e01b600052604160045260246000fd5b600082601f83011261118257600080fd5b813567ffffffffffffffff8082111561119d5761119d61115b565b604051601f8301601f19908116603f011681019082821181831017156111c5576111c561115b565b816040528381528660208588010111156111de57600080fd5b836020870160208301376000602085830101528094505050505092915050565b6001600160a01b038116811461121357600080fd5b50565b60008060006060848603121561122b57600080fd5b833567ffffffffffffffff8082111561124357600080fd5b61124f87838801611171565b945060208601359150611261826111fe565b9092506040850135908082111561127757600080fd5b5061128486828701611171565b9150509250925092565b6000602082840312156112a057600080fd5b81356112ab816111fe565b9392505050565b60005b838110156112cd5781810151838201526020016112b5565b838111156112dc576000848401525b50505050565b600081518084526112fa8160208601602086016112b2565b601f01601f19169290920160200192915050565b6020815260006112ab60208301846112e2565b6000806000806080858703121561133757600080fd5b8435611342816111fe565b9350602085013567ffffffffffffffff8082111561135f57600080fd5b61136b88838901611171565b9450604087013591508082111561138157600080fd5b61138d88838901611171565b935060608701359150808211156113a357600080fd5b506113b087828801611171565b91505092959194509250565b6080815260006113cf60808301876112e2565b82810360208401526113e181876112e2565b61ffff95909516604084015250506060015292915050565b60008060006060848603121561140e57600080fd5b833567ffffffffffffffff8082111561142657600080fd5b61143287838801611171565b9450602086013591508082111561144857600080fd5b61145487838801611171565b9350604086013591508082111561127757600080fd5b60408152600061147d60408301856112e2565b828103602084015261148f81856112e2565b95945050505050565b6000602082840312156114aa57600080fd5b5035919050565b6020815260008251604060208401526114cd60608401826112e2565b602094909401516001600160a01b0316604093909301929092525090919050565b60808152600061150160808301876112e2565b828103602084015261151381876112e2565b9050828103604084015261152781866112e2565b91505060018060a01b038316606083015295945050505050565b634e487b7160e01b600052602160045260246000fd5b602081016007831061157957634e487b7160e01b600052602160045260246000fd5b91905290565b6000806040838503121561159257600080fd5b823567ffffffffffffffff808211156115aa57600080fd5b6115b686838701611171565b935060208501359150808211156115cc57600080fd5b506115d985828601611171565b9150509250929050565b600080604083850312156115f657600080fd5b8235611601816111fe565b9150602083013567ffffffffffffffff81111561161d57600080fd5b6115d985828601611171565b60006020828403121561163b57600080fd5b813567ffffffffffffffff81111561165257600080fd5b61165e84828501611171565b949350505050565b600082516116788184602087016112b2565b9190910192915050565b600181811c9082168061169657607f821691505b602082108114156116b757634e487b7160e01b600052602260045260246000fd5b5091905056fea2646970667358221220117ec09f0c431b9f7103ebef5c58e3a9bfe7e6e1eb701cb4bc190739db19fd0464736f6c63430008090033",
    "sourcePath": "/home/morimaroo17/work/blockchain_work/solidity_work/blockchain_session/contracts/Session.sol",
    "compiler": {
        "name": "solc",
        "version": "0.8.9+commit.e5eed63a"
    },
    "functionHashes": {
        "add_customer(string,string,string)": "2e2f14ab",
        "add_shop(address,string,string,string)": "253583c4",
        "address_per_login(string)": "b3b2baae",
        "admins(address)": "429b62e5",
        "asks_bank(address)": "44a373d7",
        "asks_for_down(address)": "5433ee09",
        "asks_for_up(address)": "e324093b",
        "check_auth_data(string,string)": "96888ea0",
        "create_bank_account(string,address,string)": "052bbde9",
        "customers(address)": "336989ae",
        "get_address_by_login(string)": "f4170678",
        "get_bank()": "6ac52782",
        "get_role(address)": "39c22db8",
        "get_token(address)": "977d9122",
        "logout(address)": "cc51f9b9",
        "providers(address)": "0787bc27",
        "role_per_address(address)": "831454db",
        "sellers(address)": "6d47ab72",
        "set_token(address,string)": "a228f4e1",
        "shops(address)": "2dca1fcc",
        "users(uint256)": "365b98b2"
    },
    "gasEstimates": {
        "creation": {
            "codeDepositCost": "1175000",
            "executionCost": "1221",
            "totalCost": "1176221"
        },
        "external": {
            "add_customer(string,string,string)": "infinite",
            "add_shop(address,string,string,string)": "infinite",
            "address_per_login(string)": "infinite",
            "admins(address)": "infinite",
            "asks_bank(address)": "2624",
            "asks_for_down(address)": "2575",
            "asks_for_up(address)": "2662",
            "check_auth_data(string,string)": "infinite",
            "create_bank_account(string,address,string)": "infinite",
            "customers(address)": "infinite",
            "get_address_by_login(string)": "infinite",
            "get_bank()": "infinite",
            "get_role(address)": "infinite",
            "get_token(address)": "infinite",
            "logout(address)": "infinite",
            "providers(address)": "infinite",
            "role_per_address(address)": "2655",
            "sellers(address)": "infinite",
            "set_token(address,string)": "infinite",
            "shops(address)": "infinite",
            "users(uint256)": "4659"
        }
    }
}