{
    "contractName": "Accounts",
    "abi": [
        {
            "inputs": [
                {
                    "internalType": "string",
                    "name": "_login",
                    "type": "string"
                },
                {
                    "internalType": "string",
                    "name": "_name",
                    "type": "string"
                },
                {
                    "internalType": "string",
                    "name": "_password",
                    "type": "string"
                }
            ],
            "name": "add_customer",
            "outputs": [],
            "stateMutability": "nonpayable",
            "type": "function"
        },
        {
            "inputs": [
                {
                    "internalType": "address payable",
                    "name": "_shop_address",
                    "type": "address"
                },
                {
                    "internalType": "string",
                    "name": "_name",
                    "type": "string"
                },
                {
                    "internalType": "string",
                    "name": "_city",
                    "type": "string"
                },
                {
                    "internalType": "string",
                    "name": "_password",
                    "type": "string"
                }
            ],
            "name": "add_shop",
            "outputs": [],
            "stateMutability": "nonpayable",
            "type": "function"
        },
        {
            "inputs": [
                {
                    "internalType": "string",
                    "name": "",
                    "type": "string"
                }
            ],
            "name": "address_per_login",
            "outputs": [
                {
                    "internalType": "address",
                    "name": "",
                    "type": "address"
                }
            ],
            "stateMutability": "view",
            "type": "function"
        },
        {
            "inputs": [
                {
                    "internalType": "address",
                    "name": "",
                    "type": "address"
                }
            ],
            "name": "admins",
            "outputs": [
                {
                    "internalType": "string",
                    "name": "login",
                    "type": "string"
                },
                {
                    "internalType": "string",
                    "name": "name",
                    "type": "string"
                }
            ],
            "stateMutability": "view",
            "type": "function"
        },
        {
            "inputs": [
                {
                    "internalType": "address",
                    "name": "",
                    "type": "address"
                }
            ],
            "name": "asks_bank",
            "outputs": [
                {
                    "internalType": "uint256",
                    "name": "",
                    "type": "uint256"
                }
            ],
            "stateMutability": "view",
            "type": "function"
        },
        {
            "inputs": [
                {
                    "internalType": "address",
                    "name": "",
                    "type": "address"
                }
            ],
            "name": "asks_for_down",
            "outputs": [
                {
                    "internalType": "address",
                    "name": "",
                    "type": "address"
                }
            ],
            "stateMutability": "view",
            "type": "function"
        },
        {
            "inputs": [
                {
                    "internalType": "address",
                    "name": "",
                    "type": "address"
                }
            ],
            "name": "asks_for_up",
            "outputs": [
                {
                    "internalType": "address",
                    "name": "",
                    "type": "address"
                }
            ],
            "stateMutability": "view",
            "type": "function"
        },
        {
            "inputs": [
                {
                    "internalType": "address",
                    "name": "",
                    "type": "address"
                }
            ],
            "name": "auth_token",
            "outputs": [
                {
                    "internalType": "string",
                    "name": "",
                    "type": "string"
                }
            ],
            "stateMutability": "view",
            "type": "function"
        },
        {
            "inputs": [
                {
                    "internalType": "string",
                    "name": "_login",
                    "type": "string"
                },
                {
                    "internalType": "string",
                    "name": "_password",
                    "type": "string"
                }
            ],
            "name": "check_auth_data",
            "outputs": [
                {
                    "internalType": "bool",
                    "name": "",
                    "type": "bool"
                }
            ],
            "stateMutability": "view",
            "type": "function"
        },
        {
            "inputs": [
                {
                    "internalType": "string",
                    "name": "_bank_name",
                    "type": "string"
                },
                {
                    "internalType": "address",
                    "name": "_bank_address",
                    "type": "address"
                },
                {
                    "internalType": "string",
                    "name": "_password",
                    "type": "string"
                }
            ],
            "name": "create_bank_account",
            "outputs": [],
            "stateMutability": "nonpayable",
            "type": "function"
        },
        {
            "inputs": [
                {
                    "internalType": "address",
                    "name": "",
                    "type": "address"
                }
            ],
            "name": "customers",
            "outputs": [
                {
                    "internalType": "string",
                    "name": "login",
                    "type": "string"
                },
                {
                    "internalType": "string",
                    "name": "name",
                    "type": "string"
                }
            ],
            "stateMutability": "view",
            "type": "function"
        },
        {
            "inputs": [],
            "name": "get_bank",
            "outputs": [
                {
                    "components": [
                        {
                            "internalType": "string",
                            "name": "name",
                            "type": "string"
                        },
                        {
                            "internalType": "address",
                            "name": "bank_address",
                            "type": "address"
                        }
                    ],
                    "internalType": "struct Accounts.Bank",
                    "name": "",
                    "type": "tuple"
                }
            ],
            "stateMutability": "view",
            "type": "function"
        },
        {
            "inputs": [
                {
                    "internalType": "address",
                    "name": "_user_address",
                    "type": "address"
                }
            ],
            "name": "get_role",
            "outputs": [
                {
                    "internalType": "string",
                    "name": "",
                    "type": "string"
                }
            ],
            "stateMutability": "view",
            "type": "function"
        },
        {
            "inputs": [
                {
                    "internalType": "address",
                    "name": "",
                    "type": "address"
                }
            ],
            "name": "providers",
            "outputs": [
                {
                    "internalType": "string",
                    "name": "name",
                    "type": "string"
                }
            ],
            "stateMutability": "view",
            "type": "function"
        },
        {
            "inputs": [
                {
                    "internalType": "address",
                    "name": "",
                    "type": "address"
                }
            ],
            "name": "role_per_address",
            "outputs": [
                {
                    "internalType": "enum Accounts.Role",
                    "name": "",
                    "type": "uint8"
                }
            ],
            "stateMutability": "view",
            "type": "function"
        },
        {
            "inputs": [
                {
                    "internalType": "address",
                    "name": "",
                    "type": "address"
                }
            ],
            "name": "sellers",
            "outputs": [
                {
                    "internalType": "string",
                    "name": "login",
                    "type": "string"
                },
                {
                    "internalType": "string",
                    "name": "name",
                    "type": "string"
                },
                {
                    "internalType": "string",
                    "name": "city",
                    "type": "string"
                },
                {
                    "internalType": "address",
                    "name": "shop_address",
                    "type": "address"
                }
            ],
            "stateMutability": "view",
            "type": "function"
        },
        {
            "inputs": [
                {
                    "internalType": "address",
                    "name": "",
                    "type": "address"
                }
            ],
            "name": "shops",
            "outputs": [
                {
                    "internalType": "string",
                    "name": "name",
                    "type": "string"
                },
                {
                    "internalType": "string",
                    "name": "city",
                    "type": "string"
                },
                {
                    "internalType": "uint16",
                    "name": "rate",
                    "type": "uint16"
                },
                {
                    "internalType": "uint256",
                    "name": "using_reviews",
                    "type": "uint256"
                }
            ],
            "stateMutability": "view",
            "type": "function"
        },
        {
            "inputs": [
                {
                    "internalType": "uint256",
                    "name": "",
                    "type": "uint256"
                }
            ],
            "name": "users",
            "outputs": [
                {
                    "internalType": "address",
                    "name": "",
                    "type": "address"
                }
            ],
            "stateMutability": "view",
            "type": "function"
        }
    ],
    "bytecode": "608060405234801561001057600080fd5b506115ad806100206000396000f3fe608060405234801561001057600080fd5b50600436106101165760003560e01c806344a373d7116100a25780636d47ab72116100715780636d47ab7214610293578063831454db146102b657806396888ea0146102e6578063b3b2baae14610309578063e324093b1461033d57600080fd5b806344a373d7146102145780635433ee09146102425780635b18d0dd1461026b5780636ac527821461027e57600080fd5b80632e2f14ab116100e95780632e2f14ab1461018f578063336989ae146101a2578063365b98b2146101c357806339c22db8146101ee578063429b62e51461020157600080fd5b8063052bbde91461011b5780630787bc2714610130578063253583c4146101595780632dca1fcc1461016c575b600080fd5b61012e610129366004611116565b610366565b005b61014361013e36600461118e565b61041f565b604051610150919061120e565b60405180910390f35b61012e610167366004611221565b6104bd565b61017f61017a36600461118e565b610658565b60405161015094939291906112bc565b61012e61019d3660046112f9565b610795565b6101b56101b036600461118e565b6108c4565b60405161015092919061136a565b6101d66101d1366004611398565b6109f0565b6040516001600160a01b039091168152602001610150565b6101436101fc36600461118e565b610a1a565b6101b561020f36600461118e565b610bd0565b61023461022236600461118e565b60066020526000908152604090205481565b604051908152602001610150565b6101d661025036600461118e565b6005602052600090815260409020546001600160a01b031681565b61014361027936600461118e565b610beb565b610286610c85565b60405161015091906113b1565b6102a66102a136600461118e565b610d53565b60405161015094939291906113ee565b6102d96102c436600461118e565b60016020526000908152604090205460ff1681565b6040516101509190611457565b6102f96102f436600461147f565b610f1c565b6040519015158152602001610150565b6101d66103173660046114e3565b80516020818301810180516003825292820191909301209152546001600160a01b031681565b6101d661034b36600461118e565b6004602052600090815260409020546001600160a01b031681565b604080518082019091528381526001600160a01b0383166020808301919091528451600791610399918391880190610f6d565b50602091820151600191820180546001600160a01b0319166001600160a01b0392831617905584166000908152908252604090819020805460ff19169055516103e49183910161120e565b6040516020818303038152906040528051906020012060028460405161040a9190611520565b90815260405190819003602001902055505050565b600b6020526000908152604090208054819061043a9061153c565b80601f01602080910402602001604051908101604052809291908181526020018280546104669061153c565b80156104b35780601f10610488576101008083540402835291602001916104b3565b820191906000526020600020905b81548152906001019060200180831161049657829003601f168201915b5050505050905081565b6104f36040518060a00160405280606081526020016060815260200160608152602001600061ffff168152602001600081525090565b8381526020808201849052600060608301819052608083018190526001600160a01b0387168152600a825260409020825180518493610536928492910190610f6d565b50602082810151805161054f9260018501920190610f6d565b506040820151805161056b916002840191602090910190610ff1565b50606082015160038201805461ffff191661ffff9092169190911790556080909101516004909101556001600160a01b0385166000908152600160208190526040909120805460ff191682800217905550816040516020016105cd919061120e565b604051602081830303815290604052805190602001206002856040516105f39190611520565b908152604051908190036020019020555050600080546001810182559080527f290decd9548b62a8d60345a988386fc84ba6bc95484008f6362f93160ef3e5630180546001600160a01b039094166001600160a01b0319909416939093179092555050565b600a602052600090815260409020805481906106739061153c565b80601f016020809104026020016040519081016040528092919081815260200182805461069f9061153c565b80156106ec5780601f106106c1576101008083540402835291602001916106ec565b820191906000526020600020905b8154815290600101906020018083116106cf57829003601f168201915b5050505050908060010180546107019061153c565b80601f016020809104026020016040519081016040528092919081815260200182805461072d9061153c565b801561077a5780601f1061074f5761010080835404028352916020019161077a565b820191906000526020600020905b81548152906001019060200180831161075d57829003601f168201915b505050506003830154600490930154919261ffff1691905084565b6040805180820182528481526020808201859052336000908152600d82529290922081518051929391926107cc9284920190610f6d565b5060208281015180516107e59260018501920190610f6d565b50506040516107f99150829060200161120e565b6040516020818303038152906040528051906020012060028460405161081f9190611520565b9081526040805191829003602090810183209390935533600081815260019094529220805460ff1916600417905560039061085b908690611520565b90815260405190819003602001902080546001600160a01b03929092166001600160a01b0319928316179055600080546001810182559080527f290decd9548b62a8d60345a988386fc84ba6bc95484008f6362f93160ef3e56301805490911633179055505050565b600d602052600090815260409020805481906108df9061153c565b80601f016020809104026020016040519081016040528092919081815260200182805461090b9061153c565b80156109585780601f1061092d57610100808354040283529160200191610958565b820191906000526020600020905b81548152906001019060200180831161093b57829003601f168201915b50505050509080600101805461096d9061153c565b80601f01602080910402602001604051908101604052809291908181526020018280546109999061153c565b80156109e65780601f106109bb576101008083540402835291602001916109e6565b820191906000526020600020905b8154815290600101906020018083116109c957829003601f168201915b5050505050905082565b60008181548110610a0057600080fd5b6000918252602090912001546001600160a01b0316905081565b6001600160a01b03811660009081526001602052604081205460609160ff90911690816006811115610a4e57610a4e611441565b1415610a7657505060408051808201909152600481526362616e6b60e01b6020820152919050565b6001816006811115610a8a57610a8a611441565b1415610ab2575050604080518082019091526004815263073686f760e41b6020820152919050565b6002816006811115610ac657610ac6611441565b1415610af2575050604080518082019091526008815267383937bb34b232b960c11b6020820152919050565b6003816006811115610b0657610b06611441565b1415610b3057505060408051808201909152600681526539b2b63632b960d11b6020820152919050565b6004816006811115610b4457610b44611441565b1415610b7057505060408051808201909152600881526731bab9ba37b6b2b960c11b6020820152919050565b6005816006811115610b8457610b84611441565b1415610bad57505060408051808201909152600581526430b236b4b760d91b6020820152919050565b505060408051808201909152600581526419dd595cdd60da1b6020820152919050565b600e602052600090815260409020805481906108df9061153c565b600f6020526000908152604090208054610c049061153c565b80601f0160208091040260200160405190810160405280929190818152602001828054610c309061153c565b8015610c7d5780601f10610c5257610100808354040283529160200191610c7d565b820191906000526020600020905b815481529060010190602001808311610c6057829003601f168201915b505050505081565b6040805180820190915260608152600060208201526007604051806040016040529081600082018054610cb79061153c565b80601f0160208091040260200160405190810160405280929190818152602001828054610ce39061153c565b8015610d305780601f10610d0557610100808354040283529160200191610d30565b820191906000526020600020905b815481529060010190602001808311610d1357829003601f168201915b5050509183525050600191909101546001600160a01b0316602090910152919050565b600c60205260009081526040902080548190610d6e9061153c565b80601f0160208091040260200160405190810160405280929190818152602001828054610d9a9061153c565b8015610de75780601f10610dbc57610100808354040283529160200191610de7565b820191906000526020600020905b815481529060010190602001808311610dca57829003601f168201915b505050505090806001018054610dfc9061153c565b80601f0160208091040260200160405190810160405280929190818152602001828054610e289061153c565b8015610e755780601f10610e4a57610100808354040283529160200191610e75565b820191906000526020600020905b815481529060010190602001808311610e5857829003601f168201915b505050505090806002018054610e8a9061153c565b80601f0160208091040260200160405190810160405280929190818152602001828054610eb69061153c565b8015610f035780601f10610ed857610100808354040283529160200191610f03565b820191906000526020600020905b815481529060010190602001808311610ee657829003601f168201915b505050600390930154919250506001600160a01b031684565b600081604051602001610f2f919061120e565b60405160208183030381529060405280519060200120600284604051610f559190611520565b90815260200160405180910390205414905092915050565b828054610f799061153c565b90600052602060002090601f016020900481019282610f9b5760008555610fe1565b82601f10610fb457805160ff1916838001178555610fe1565b82800160010185558215610fe1579182015b82811115610fe1578251825591602001919060010190610fc6565b50610fed929150611046565b5090565b828054828255906000526020600020908101928215610fe1579160200282015b82811115610fe157825182546001600160a01b0319166001600160a01b03909116178255602090920191600190910190611011565b5b80821115610fed5760008155600101611047565b634e487b7160e01b600052604160045260246000fd5b600082601f83011261108257600080fd5b813567ffffffffffffffff8082111561109d5761109d61105b565b604051601f8301601f19908116603f011681019082821181831017156110c5576110c561105b565b816040528381528660208588010111156110de57600080fd5b836020870160208301376000602085830101528094505050505092915050565b6001600160a01b038116811461111357600080fd5b50565b60008060006060848603121561112b57600080fd5b833567ffffffffffffffff8082111561114357600080fd5b61114f87838801611071565b945060208601359150611161826110fe565b9092506040850135908082111561117757600080fd5b5061118486828701611071565b9150509250925092565b6000602082840312156111a057600080fd5b81356111ab816110fe565b9392505050565b60005b838110156111cd5781810151838201526020016111b5565b838111156111dc576000848401525b50505050565b600081518084526111fa8160208601602086016111b2565b601f01601f19169290920160200192915050565b6020815260006111ab60208301846111e2565b6000806000806080858703121561123757600080fd5b8435611242816110fe565b9350602085013567ffffffffffffffff8082111561125f57600080fd5b61126b88838901611071565b9450604087013591508082111561128157600080fd5b61128d88838901611071565b935060608701359150808211156112a357600080fd5b506112b087828801611071565b91505092959194509250565b6080815260006112cf60808301876111e2565b82810360208401526112e181876111e2565b61ffff95909516604084015250506060015292915050565b60008060006060848603121561130e57600080fd5b833567ffffffffffffffff8082111561132657600080fd5b61133287838801611071565b9450602086013591508082111561134857600080fd5b61135487838801611071565b9350604086013591508082111561117757600080fd5b60408152600061137d60408301856111e2565b828103602084015261138f81856111e2565b95945050505050565b6000602082840312156113aa57600080fd5b5035919050565b6020815260008251604060208401526113cd60608401826111e2565b602094909401516001600160a01b0316604093909301929092525090919050565b60808152600061140160808301876111e2565b828103602084015261141381876111e2565b9050828103604084015261142781866111e2565b91505060018060a01b038316606083015295945050505050565b634e487b7160e01b600052602160045260246000fd5b602081016007831061147957634e487b7160e01b600052602160045260246000fd5b91905290565b6000806040838503121561149257600080fd5b823567ffffffffffffffff808211156114aa57600080fd5b6114b686838701611071565b935060208501359150808211156114cc57600080fd5b506114d985828601611071565b9150509250929050565b6000602082840312156114f557600080fd5b813567ffffffffffffffff81111561150c57600080fd5b61151884828501611071565b949350505050565b600082516115328184602087016111b2565b9190910192915050565b600181811c9082168061155057607f821691505b6020821081141561157157634e487b7160e01b600052602260045260246000fd5b5091905056fea2646970667358221220a8f19bccc7c99e799932f1067c15f19279d7c4be291bb28e35ff32421ff9036864736f6c63430008090033",
    "sourcePath": "/home/morimaroo17/work/blockchain_work/solidity_work/blockchain_session/contracts/Session.sol",
    "compiler": {
        "name": "solc",
        "version": "0.8.9+commit.e5eed63a"
    },
    "functionHashes": {
        "add_customer(string,string,string)": "2e2f14ab",
        "add_shop(address,string,string,string)": "253583c4",
        "address_per_login(string)": "b3b2baae",
        "admins(address)": "429b62e5",
        "asks_bank(address)": "44a373d7",
        "asks_for_down(address)": "5433ee09",
        "asks_for_up(address)": "e324093b",
        "auth_token(address)": "5b18d0dd",
        "check_auth_data(string,string)": "96888ea0",
        "create_bank_account(string,address,string)": "052bbde9",
        "customers(address)": "336989ae",
        "get_bank()": "6ac52782",
        "get_role(address)": "39c22db8",
        "providers(address)": "0787bc27",
        "role_per_address(address)": "831454db",
        "sellers(address)": "6d47ab72",
        "shops(address)": "2dca1fcc",
        "users(uint256)": "365b98b2"
    },
    "gasEstimates": {
        "creation": {
            "codeDepositCost": "1109800",
            "executionCost": "1154",
            "totalCost": "1110954"
        },
        "external": {
            "add_customer(string,string,string)": "infinite",
            "add_shop(address,string,string,string)": "infinite",
            "address_per_login(string)": "infinite",
            "admins(address)": "infinite",
            "asks_bank(address)": "2536",
            "asks_for_down(address)": "2597",
            "asks_for_up(address)": "2662",
            "auth_token(address)": "infinite",
            "check_auth_data(string,string)": "infinite",
            "create_bank_account(string,address,string)": "infinite",
            "customers(address)": "infinite",
            "get_bank()": "infinite",
            "get_role(address)": "infinite",
            "providers(address)": "infinite",
            "role_per_address(address)": "2610",
            "sellers(address)": "infinite",
            "shops(address)": "infinite",
            "users(uint256)": "4681"
        }
    }
}